:060000000A128A11F82F1C
:100EAE0083160313880105148514051508000A120C
:100EBE008A1157270A128A110A128A119D270A12BD
:100ECE008A110028F000701C702F8312031308166D
:100EDE00732F831203130812F01C772F8816782FA6
:100EEE008812701D7C2F08177D2F0813F01D812F7F
:100EFE008817080088130800F30083120313881064
:100F0E0073080A128A1169270A128A1183120313AF
:100F1E0008140B30F2006230F100F10B942FF20B3B
:100F2E00942F0000831203130810080000300A12D9
:100F3E008A1169270A128A113430F500F130F40053
:100F4E00F40BA72FF50BA72FAC2F03300A128A1123
:100F5E0083270A128A110D30F500FB30F400F40BD2
:100F6E00B62FF50BB62FBB2F03300A128A1183272B
:100F7E000A128A111D30F5009130F400F40BC52FC2
:100F8E00F50BC52F03300A128A1183270A128A1114
:100F9E0002300A128A1183270A128A1102300A12AB
:100FAE008A1183270A128A1108300A128A1183279E
:100FBE000A128A1100300A128A1183270A128A1124
:100FCE000C300A128A1183270A128A1100300A1273
:100FDE008A1183270A128A1106300A128A11832770
:100FEE000800F601F701F801F90183010A128A11CE
:020FFE005E2F64
:02400E00FAFFB7
:00000001FF
