:100000000A128A11F82F00308A000408840A820735
:100010000034503472346F3479346534633474345A
:100020006F34203441346E347434693472346F3434
:1000300062346F3400346D34693464346934653447
:100040006E3464346F3420346C34693474347234F4
:100050006F3473343A340034643465342034673494
:10006000613473346F346C3469346E346534723493
:1000700061347334003448346534633468346F3425
:10008000203470346F347234003452342E342034BF
:0C009000433465346C346934733400343C
:100BA8008316031388010514851405150800003001
:100BB8000A128A1100260A128A1101300A128A11B1
:100BC80000260800F000701CED2D83120313081690
:100BD800F02D831203130812F01CF42D8816F52D3E
:100BE8008812701DF92D0817FA2D0813F01DFE2D17
:100BF8008817080088130800F3008312031388106D
:100C080073080A128A11E6250A128A11831203133D
:100C180008140B30F2006230F100F10B112EF20BC8
:100C2800112E00008312031308100800F700F501C5
:100C3800F6017508770784000A128A1103200A1240
:100C48008A110038031908007508770784000A120A
:100C58008A1103200A128A110A128A113C260A12E2
:100C68008A110130F5070318F60A0030F6071D2E21
:100C7800F40074080F39F1007108F2007408F039B3
:100C8800F1007108F3008312031388147308F1004C
:100C980004300310F10CFF3E031D4D2E71080A129B
:100CA8008A11E6250A128A118312031308141A30CE
:100CB800F100F10B5D2E0000831203130810720877
:100CC8000A128A11E6250A128A11831203130814DC
:100CD8001A30F100F10B6E2E000083120313081076
:100CE8000800F7007708013A031DA12E74087F3E1B
:100CF800FC00003003180130FD007D08F6007C0878
:100D0800F5000430FF00760DF60CF50CFF0B872E6E
:100D18007508F8007608F9000F307C05FA000030F5
:100D28007D05FB0078080A128A1100260A128A112A
:100D38007A080A128A11002608007708023A031D69
:100D480008007408BF3EFC00003003180130FD00A5
:100D58007D08F6007C08F5000430FF00760DF60CDF
:100D6800F50CFF0BB22E7508F8007608F9000F3065
:100D78007C05FA0000307D05FB0078080A128A110C
:100D880000260A128A117A080A128A110026080017
:100D980000300A128A11E6250A128A113430F50049
:100DA800F130F400F40BD62EF50BD62EDB2E0330E3
:100DB8000A128A1100260A128A110D30F500FB303A
:100DC800F400F40BE52EF50BE52EEA2E03300A129B
:100DD8008A1100260A128A111D30F5009130F4009C
:100DE800F40BF42EF50BF42E03300A128A110026A8
:100DF8000A128A1102300A128A1100260A128A116E
:100E080002300A128A1100260A128A1108300A12C0
:100E18008A1100260A128A1100300A128A11002645
:100E28000A128A110C300A128A1100260A128A1133
:100E380000300A128A1100260A128A1106300A1294
:100E48008A11002608000A128A11D4250A128A116A
:100E58000A128A11CC260A128A110A128A11DB2573
:100E68000A128A11F401F40A01300A128A1175264D
:100E78000A128A1101300A128A111A260A128A11D4
:100E8800F401F40A02300A128A1175260A128A112C
:100E980024300A128A111A260A128A110B30831278
:100EA8000313A2002630A1006630A000A00B5A2F21
:100EB800A10B5A2FA20B5A2F612F0A128A11DB2578
:100EC8000A128A1183120313A501A6012608803A83
:100ED800FF0080307F02031D732F0B30250203189B
:100EE800C22FF401F40A01300A128A1175260A1277
:100EF8008A1113300A128A111A260A128A11F40169
:100F0800F40A02300A128A1175260A128A1183120B
:100F180003132508303EA30026080318013E003EAF
:100F2800A40023080A128A113C260A128A110B30DF
:100F380083120313A2002630A1006630A000A00B84
:100F4800A32FA10BA32FA20BA32FAA2F0A128A113A
:100F5800DB250A128A11013083120313A50703182F
:100F6800A60A0030A6072608803AFF0080307F02D4
:100F7800031DC02F0B302502031C752F0A128A117E
:100F8800DB250A128A11F401F40A01300A128A11C7
:100F980075260A128A1133300A128A111A260A1281
:100FA8008A11F401F40A02300A128A1175260A120B
:100FB8008A113D300A128A111A260A128A110B3038
:100FC80083120313A2002630A1006630A000A00BF4
:100FD800EB2FA10BEB2FA20BEB2FF22F0A128A118A
:100FE800DB250A128A11312FA701A801A901AA013C
:080FF80083010A128A11272F60
:02400E00FAFFB7
:00000001FF
