:060000000A128A11F52F1F
:10000800F7007708013A031D302874087F3EFC008A
:10001800003003180130FD007D08F6007C08F5006B
:100028000430FF00760DF60CF50CFF0B162875084A
:10003800F8007608F9000F307C05FA0000307D05DD
:10004800FB0078080A128A1512270A128A117A0800
:100058000A128A15122708007708023A031D0800B9
:100068007408BF3EFC00003003180130FD007D0815
:10007800F6007C08F5000430FF00760DF60CF50C50
:10008800FF0B41287508F8007608F9000F307C0549
:10009800FA0000307D05FB0078080A128A1512273D
:1000A8000A128A117A080A128A15122708000030E3
:1000B8000A128A15F8260A128A113430F500F1302E
:1000C800F400F40B6528F50B65286A2803300A123A
:1000D8008A1512270A128A110D30F500FB30F40038
:1000E800F40B7428F50B7428792803300A128A1542
:1000F80012270A128A111D30F5009130F400F40B12
:100108008328F50B832803300A128A1512270A124E
:100118008A1102300A128A1512270A128A1102302D
:100128000A128A1512270A128A1108300A128A1529
:1001380012270A128A1100300A128A1512270A1287
:100148008A110C300A128A1512270A128A110030F5
:100158000A128A1512270A128A1106300A128A15FB
:100168001227080073080319BE2872087104700466
:10017800031DD1280030F0000030F1000030F200FB
:1001880008000130F5007508F30701300310F20C80
:10019800F10CF00CFF3E031DCA28FE30720503194E
:1001A800EC28C5280130F5007508F3070130F00781
:1001B800003003180130F107003003180130F2074E
:1001C80001300310F20CF10CF00CFF3E031DE52882
:1001D800FF3072050319FB28D6280130F3020130DD
:1001E8000310F00DF10DF20DFF3E031DF428F11F71
:1001F800F12873180529FF30F0057F30F105FF302D
:10020800F2050310F30C7308F500F601F70110303E
:100218000310F50DF60DF70DFF3E031D0C297508AB
:10022800F0047608F1047708F2047408031908004A
:10023800F21708007008F4007108F5007208F6005B
:100248000310750D760DF7007708FD00FD08031DF6
:1002580036290030F3000030F2000030F1000030A1
:10026800F00008007008F4007108F5007208F60044
:1002780017300310F60CF50CF40CFF3E031D3D2956
:100288007408F7007708F800F117FF30F005FF3021
:10029800F1050030F2057008F9007108FA007208DB
:1002A800FB00FC018E30FD02FD1F78297D08803A95
:1002B8008F3E031868290030F3000030F200003048
:1002C800F1000030F000080001300310FC0CFB0CBA
:1002D800FA0CF90CFF3E031D69290130F40074087B
:1002E800FD0703199329682918307D02031C9029FA
:1002F8000030F3000030F2000030F1000030F00070
:1003080008000130F4000310F90DFA0DFB0DFC0D87
:10031800F40B87290130FD02FD08031D85297808A3
:100328000319A129F909FA09FB09FC09F90A0319B2
:10033800FA0A0319FB0A0319FC0A7C08F3007B0874
:10034800F2007A08F1007908F00008007B088312AF
:100358000313A0007C08A1007D08A2000310210D52
:10036800220DA3002308A800A808031DC2290030F5
:10037800F8000030F9000030FA0008007808A00002
:100388007908A1007A08A2000310210D220DA3000C
:100398002308A900A908031DD8290030F800003057
:1003A800F9000030FA0008000030A5000030A6006F
:1003B8000030A70089302907A0002008A8027B0880
:1003C800A0007C08A1007D08A20010300310A20C38
:1003D800A10CA00CFF3E031DEA292008A300230856
:1003E800A9007808A0007908A1007A08A2001030B6
:1003F8000310A20CA10CA00CFF3E031DFC29200831
:10040800A3002308A9068030A0002008A905FC172E
:10041800FF30FB05FF30FC050030FD05F917FF3004
:10042800F805FF30F9050030FA051830A00020085B
:10043800A40001300310A50DA60DA70DFF3E031D56
:100448001E2A7A087D02031D2F2A79087C02031DC3
:100458002F2A78087B02031C3C2A7808FB027908BB
:10046800031C790FFC027A08031C7A0AFD02251482
:1004780001300310FB0DFC0DFD0DFF3E031D3D2A51
:100488000130A402031D1D2A2508F0002608F100EA
:100498002708F2002808A0002008F3002908A10076
:1004A8002108F4000A128A11B6207008F8007108B1
:1004B800F9007208FA000800780883120313A000F4
:1004C8007908A1007A08A2000310210D220DA300CB
:1004D8002308A400A408031D782A0030F80000307F
:1004E800F9000030FA0008007B08A0007C08A10091
:1004F8007D08A2000310210D220DA3002308A900E6
:10050800A908031D8E2A0030F8000030F9000030D9
:10051800FA00080029087B3EA0002008A4077808F4
:10052800A0007908A1007A08A20010300310A20CDC
:10053800A10CA00CFF3E031D9A2A2008A300230843
:10054800A9007B08A0007C08A1007D08A20010304B
:100558000310A20CA10CA00CFF3E031DAC2A20081E
:10056800A3002308A9068030A0002008A905F917D0
:10057800FC17FF30FB05FF30FC050030FD0500309F
:10058800A5000030A6000030A7000730A000200812
:10059800A800781CDD2A7B08A5077C08031103182E
:1005A8007C0A031DA6077D08031103187D0A031D95
:1005B800A70701300310FA0CF90CF80CFF3E031DD5
:1005C800DE2A01300310FB0DFC0DFD0DFF3E031D5F
:1005D800E62A0130A802031DCD2A0930A000200810
:1005E800A800781C052B7B08A5077C0803110318B5
:1005F8007C0A031DA6077D08031103187D0A031D45
:10060800A70701300310FA0CF90CF80CFF3E031D84
:10061800062B01300310A70CA60CA50CFF3E031DEA
:100628000E2B0130A802031DF52A2508F000260824
:10063800F1002708F2002408A0002008F300290888
:10064800A1002108F4000A128A11B6207008F800E7
:100658007108F9007208FA000800831203132A08C7
:10066800B0002B08B1002C08B2000310310D320D78
:10067800B3003308B6002D08B0002E08B1002F08CB
:10068800B2000310310D320DB3003308B50036083F
:1006980003195A2B350836020318612B3603FF3A23
:1006A8003507B00019303002031C612B2D08AA0051
:1006B8002E08AB002F08AC00080035080319080005
:1006C800360835020318702B3503FF3A3607B00099
:1006D80019303002031808000630B0003008B400A2
:1006E800AC1BB417AF1B3417AB17FF30AA05FF308C
:1006F800AB050030AC05AE17FF30AD05FF30AE05D9
:100708000030AF05350836020318B02B013003104E
:10071800AD0DAE0DAF0DFF3E031D8B2B0130B502A5
:10072800350836060319AB2B0130B40234080739F3
:100738000319AB2B8A2B01300310AC0CAB0CAA0CA1
:10074800FF3E031DA02B0130B0003008B607360865
:1007580035060319D92B9F2B360835020318D92BD8
:1007680001300310AA0DAB0DAC0DFF3E031DB52BD8
:100778000130B602350836060319D52B0130B4020C
:10078800340807390319D52BB42B01300310AF0CEB
:10079800AE0CAD0CFF3E031DCA2B0130B000300873
:1007A800B50736083506031DC92BB41FEB2BFF30E0
:1007B800AA06FF30AB06FF30AC060130AA070030AE
:1007C80003180130AB07003003180130AC07341FA1
:1007D800FD2BFF30AD06FF30AE06FF30AF0601300F
:1007E800AD07003003180130AE07003003180130A0
:1007F800AF07B4012A08AD072B08031103182B0A09
:10080800031DAE072C08031103182C0A031DAF079C
:10081800AF1F202CFF30AD06FF30AE06FF30AF060D
:100828000130AD07003003180130AE07003003185F
:100838000130AF07B401B40A2D08F0002E08F1000A
:100848002F08F2003608B0003008F3003408B10071
:100858003108F4000A128A11B620700883120313B3
:10086800AA007108AB007208AC0008000030F00064
:100878000030F1000A128A15ED260A128A110A12AE
:100888008A15CB260A128A110A128A115B200A12CB
:100898008A110A128A15E2260A128A110D30831269
:1008A8000313BC00FB30BB00BB0B582CBC0B582CF3
:1008B8005D2CF401F40A01300A128A1104200A128C
:1008C8008A110D3083120313BC00FB30BB00BB0B35
:1008D8006B2CBC0B6B2C702C01300A128A152C2740
:1008E8000A128A110D3083120313BC00FB30BB00BF
:1008F800BB0B7C2CBC0B7C2C812CF401F40A023041
:100908000A128A1104200A128A110D308312031365
:10091800BC00FB30BB00BB0B8F2CBC0B8F2C942C6A
:1009280013300A128A152C270A128A1115308312DD
:100938000313BD004B30BC00D130BB00BB0BA22C55
:10094800BC0BA22CBD0BA22C00000A128A15E226B1
:100958000A128A110D3083120313BC00FB30BB004E
:10096800BB0BB42CBC0BB42CB92C00308312031372
:10097800BE000030BF000030C000E130C100A2302E
:10098800C2004030C3004108B7004208B80043081D
:10099800B9005730BB003B08BA000A128A15B027C5
:1009A8000A128A11831203133708C4003808C500D5
:1009B8003908C6000030F8002030F9004130FA004C
:1009C8004408FB004508FC004608FD000A128A118D
:1009D80060220A128A11780883120313C400790866
:1009E800C5007A08C6000030F8002030F900413010
:1009F800FA005708FB005808FC005908FD000A12C5
:100A08008A11AA210A128A11780883120313D700BF
:100A18007908D8007A08D9005708B7005808B800EC
:100A28005908B9005A30BB003B08BA000A128A15A7
:100A3800B0270A128A11831203133708CD00380829
:100A4800CE003908CF000030AA004030AB00423059
:100A5800AC000030F8002030F9004130FA004D08B1
:100A6800FB004E08FC004F08FD000A128A116022A4
:100A78000A128A11780883120313AD007908AE00B0
:100A88007A08AF000A128A1131230A128A118312D6
:100A980003132A08CD002B08CE002C08CF00003005
:100AA800AA004030AB004230AC005A08AD005B08E9
:100AB800AE005C08AF000A128A1131230A128A11AB
:100AC800831203132A08DA002B08DB002C08DC0049
:100AD8004408B7004508B8004608B9005D30BB00B7
:100AE8003B08BA000A128A15B0270A128A11831223
:100AF80003133708D0003808D1003908D200003075
:100B0800AA004030AB004230AC000030F800203082
:100B1800F9004130FA005008FB005108FC00520867
:100B2800FD000A128A1160220A128A1178088312BB
:100B38000313AD007908AE007A08AF000A128A11D3
:100B480031230A128A11831203132A08D0002B08B2
:100B5800D1002C08D2000030AA004030AB0042304F
:100B6800AC005D08AD005E08AE005F08AF000A1279
:100B78008A1131230A128A11831203132A08DD000D
:100B88002B08DE002C08DF000A128A15E2260A125A
:100B98008A11F401F40A02300A128A1104200A1296
:100BA8008A112D300A128A152C270A128A111A3036
:100BB80083120313BC00F830BB00BB0BE12DBC0B48
:100BC800E12D0000831203135A08F0005B08F100BE
:100BD8005C08F2000A128A111E210A128A11700892
:100BE8000A128A1577270A128A111A3083120313F8
:100BF800BC00F830BB00BB0BFF2DBC0BFF2D000069
:100C0800831203134D08F0004E08F1004F08F2005C
:100C18000A128A111E210A128A1170080A128A15EC
:100C280077270A128A111A3083120313BC00F8308E
:100C3800BB00BB0B1D2EBC0B1D2E00002B300A1257
:100C48008A152C270A128A111A3083120313BC0042
:100C5800F830BB00BB0B2E2EBC0B2E2E00008312CF
:100C680003135D08F0005E08F1005F08F2000A1245
:100C78008A111E210A128A1170080A128A1577270A
:100C88000A128A111A3083120313BC00F830BB0011
:100C9800BB0B4C2EBC0B4C2E0000831203135008C8
:100CA800F0005108F1005208F2000A128A111E21C0
:100CB8000A128A1170080A128A1577270A128A11ED
:100CC8001A3083120313BC00F830BB00BB0B6A2E2A
:100CD800BC0B6A2E000034300A128A152C270A121F
:100CE8008A111F3083120313BD007130BC003B30E2
:100CF800BB00BB0B7D2EBC0B7D2EBD0B7D2E0000DB
:100D08000A128A15E2260A128A11F401F40A01303D
:100D18000A128A1104200A128A1122300A128A152C
:100D28002C270A128A11F401F40A02300A128A11D5
:100D380004200A128A112B300A128A152C270A124B
:100D48008A11023083120313BD000430BC00BA308C
:100D5800BB00BB0BAD2EBC0BAD2EBD0BAD2E0000EA
:100D68002B300A128A152C270A128A110230831294
:100D78000313BD000430BC00BA30BB00BB0BC22E4D
:100D8800BC0BC22EBD0BC22E00002B300A128A15D6
:100D98002C270A128A11023083120313BD00043073
:100DA800BC00BA30BB00BB0BD72EBC0BD72EBD0B7B
:100DB800D72E00002B300A128A152C270A128A1106
:100DC800023083120313BD000430BC00BA30BB00EC
:100DD800BB0BEC2EBC0BEC2EBD0BEC2E00002B300D
:100DE8000A128A152C270A128A1102308312031359
:100DF800BD000430BC00BA30BB00BB0B012FBC0BDC
:100E0800012FBD0B012F00002B300A128A152C2749
:100E18000A128A11023083120313BD000430BC0089
:100E2800BA30BB00BB0B162FBC0B162FBD0B162FF1
:100E380000002B300A128A152C270A128A11023058
:100E480083120313BD000430BC00BA30BB00BB0BD7
:100E58002B2FBC0B2B2FBD0B2B2F00002B300A1276
:100E68008A152C270A128A11023083120313BD0037
:100E78000430BC00BA30BB00BB0B402FBC0B402F6A
:100E8800BD0B402F00002B300A128A152C270A129E
:100E98008A11023083120313BD000430BC00BA303B
:100EA800BB00BB0B552FBC0B552FBD0B552F00009E
:100EB8002B300A128A152C270A128A110230831243
:100EC8000313BD000430BC00BA30BB00BB0B6A2F53
:100ED800BC0B6A2FBD0B6A2F00002B300A128A1533
:100EE8002C270A128A11023083120313BD00043022
:100EF800BC00BA30BB00BB0B7F2FBC0B7F2FBD0BD8
:100F08007F2F00002B300A128A152C270A128A110B
:100F1800023083120313BD000430BC00BA30BB009A
:100F2800BB0B942FBC0B942FBD0B942F00002B30C0
:100F38000A128A152C270A128A1102308312031307
:100F4800BD000430BC00BA30BB00BB0BA92FBC0BE2
:100F5800A92FBD0BA92F00002B300A128A152C27A8
:100F68000A128A11023083120313BD000430BC0038
:100F7800BA30BB00BB0BBE2FBC0BBE2FBD0BBE2FA8
:100F880000002B300A128A152C270A128A11023007
:100F980083120313BD000430BC00BA30BB00BB0B86
:100FA800D32FBC0BD32FBD0BD32F00002B300A122D
:100FB8008A152C270A128A11023083120313BD00E6
:100FC8000430BC00BA30BB00BB0BE82FBC0BE82FC9
:100FD800BD0BE82F00000A128A15E2260A128A11B0
:100FE800B92C83134130840060300A128A15DA263E
:100FF80083010A128A113A2C08308A000408840AEC
:1010080082070034503472346F3479346534633471
:1010180074346F34203441346E3474346934723427
:101028006F3462346F340034643465342034673488
:10103800613473346F346C3469346E3465347234AB
:101048006134733400344D3469346434693465343C
:101058006E3464346F342E342E34003454346F3488
:10106800743461346C343D34003420344C3474347A
:0610780073342E34003435
:101D960083160313880105148514051508007208B7
:101DA60071047004031908008030F206080064000C
:101DB6008001840A0406031900340406DB2E003071
:101DC6000A128A1512270A128A1501300A128A1572
:101DD60012270800700883120313E0007108E1005F
:101DE600E201E301E401E40A0800F000701CFF2EA2
:101DF600831203130816022F831203130812F01C12
:101E0600062F8816072F8812701D0B2F08170C2F08
:101E16000813F01D102F8817080088130800F30018
:101E260083120313881073080A128A15F8260A12F9
:101E36008A158312031308140B30F2006230F10086
:101E4600F10B232FF20B232F00008312031308102C
:101E56000800F700F501F6017508770784000A12F5
:101E66008A1500200A128A15003803190800750819
:101E7600770784000A128A1500200A128A150A12A8
:101E86008A1577270A128A150130F5070318F60A0C
:101E96000030F6072F2F83120313A501A21F5D2F13
:101EA600A009A109A209A00A0319A10A0319A20AF5
:101EB600A501A50A2008F0002108F1002208F20079
:101EC6008E30A3002308F3002508A4002408F4009C
:101ED6000A128A11B620700883120313A000710833
:101EE600A1007208A2000800F40074080F39F1007E
:101EF6007108F2007408F039F1007108F3008312DA
:101F0600031388147308F10004300310F10CFF3E2C
:101F1600031D882F71080A128A15F8260A128A15D7
:101F26008312031308141A30F100F10B982F0000E6
:101F360083120313081072080A128A15F8260A1269
:101F46008A158312031308141A30F100F10BA92F16
:101F560000008312031308100800831203133708C6
:101F6600F0003808F1003908F2000A128A111E2121
:101F76000A128A15720883120313A2007108A100BF
:101F86007008A0000A128A154E270A128A158312B3
:101F960003133A088400200883138000840A21086A
:101FA6008000840A220880003708AA003808AB009F
:101FB6003908AC003A0884000008F000840A0008DA
:101FC600F100840A0008F2000A128A15D2260A12C3
:101FD6008A15700883120313AD007108AE007208EB
:101FE600AF000A128A113123831203132A08B7009D
:0A1FF6002B08B8002C08B900080001
:02400E00FAFFB7
:00000001FF
